{
  "contractName": "SagoToken",
  "abi": [
    {
      "inputs": [],
      "stateMutability": "nonpayable",
      "type": "constructor"
    },
    {
      "anonymous": false,
      "inputs": [
        {
          "indexed": true,
          "internalType": "address",
          "name": "owner",
          "type": "address"
        },
        {
          "indexed": true,
          "internalType": "address",
          "name": "spender",
          "type": "address"
        },
        {
          "indexed": false,
          "internalType": "uint256",
          "name": "value",
          "type": "uint256"
        }
      ],
      "name": "Approval",
      "type": "event"
    },
    {
      "anonymous": false,
      "inputs": [
        {
          "indexed": false,
          "internalType": "uint256",
          "name": "amount",
          "type": "uint256"
        },
        {
          "indexed": false,
          "internalType": "address",
          "name": "Buyer",
          "type": "address"
        },
        {
          "indexed": false,
          "internalType": "uint256",
          "name": "NoofToken",
          "type": "uint256"
        },
        {
          "indexed": false,
          "internalType": "uint256",
          "name": "totalBalance",
          "type": "uint256"
        },
        {
          "indexed": false,
          "internalType": "uint256",
          "name": "returnAmount",
          "type": "uint256"
        }
      ],
      "name": "BuyTokenEvent",
      "type": "event"
    },
    {
      "anonymous": false,
      "inputs": [
        {
          "indexed": false,
          "internalType": "uint256",
          "name": "TotalSupply",
          "type": "uint256"
        },
        {
          "indexed": false,
          "internalType": "uint256",
          "name": "SGNPrice",
          "type": "uint256"
        },
        {
          "indexed": false,
          "internalType": "uint256",
          "name": "CurrentSupply",
          "type": "uint256"
        },
        {
          "indexed": false,
          "internalType": "uint256",
          "name": "TotalUserTOken",
          "type": "uint256"
        },
        {
          "indexed": false,
          "internalType": "uint256",
          "name": "TotalPrice",
          "type": "uint256"
        }
      ],
      "name": "GetDetails",
      "type": "event"
    },
    {
      "anonymous": false,
      "inputs": [
        {
          "indexed": true,
          "internalType": "bytes32",
          "name": "role",
          "type": "bytes32"
        },
        {
          "indexed": true,
          "internalType": "bytes32",
          "name": "previousAdminRole",
          "type": "bytes32"
        },
        {
          "indexed": true,
          "internalType": "bytes32",
          "name": "newAdminRole",
          "type": "bytes32"
        }
      ],
      "name": "RoleAdminChanged",
      "type": "event"
    },
    {
      "anonymous": false,
      "inputs": [
        {
          "indexed": true,
          "internalType": "bytes32",
          "name": "role",
          "type": "bytes32"
        },
        {
          "indexed": true,
          "internalType": "address",
          "name": "account",
          "type": "address"
        },
        {
          "indexed": true,
          "internalType": "address",
          "name": "sender",
          "type": "address"
        }
      ],
      "name": "RoleGranted",
      "type": "event"
    },
    {
      "anonymous": false,
      "inputs": [
        {
          "indexed": true,
          "internalType": "bytes32",
          "name": "role",
          "type": "bytes32"
        },
        {
          "indexed": true,
          "internalType": "address",
          "name": "account",
          "type": "address"
        },
        {
          "indexed": true,
          "internalType": "address",
          "name": "sender",
          "type": "address"
        }
      ],
      "name": "RoleRevoked",
      "type": "event"
    },
    {
      "anonymous": false,
      "inputs": [
        {
          "indexed": true,
          "internalType": "address",
          "name": "from",
          "type": "address"
        },
        {
          "indexed": true,
          "internalType": "address",
          "name": "to",
          "type": "address"
        },
        {
          "indexed": false,
          "internalType": "uint256",
          "name": "value",
          "type": "uint256"
        }
      ],
      "name": "Transfer",
      "type": "event"
    },
    {
      "anonymous": false,
      "inputs": [
        {
          "indexed": false,
          "internalType": "uint256",
          "name": "OwnerBalance",
          "type": "uint256"
        },
        {
          "indexed": false,
          "internalType": "uint256",
          "name": "Transferedamount",
          "type": "uint256"
        },
        {
          "indexed": false,
          "internalType": "address",
          "name": "Receiptend",
          "type": "address"
        }
      ],
      "name": "TransferBalanceEvnet",
      "type": "event"
    },
    {
      "inputs": [],
      "name": "DEFAULT_ADMIN_ROLE",
      "outputs": [
        {
          "internalType": "bytes32",
          "name": "",
          "type": "bytes32"
        }
      ],
      "stateMutability": "view",
      "type": "function",
      "constant": true
    },
    {
      "inputs": [],
      "name": "MINTER_ROLE",
      "outputs": [
        {
          "internalType": "bytes32",
          "name": "",
          "type": "bytes32"
        }
      ],
      "stateMutability": "view",
      "type": "function",
      "constant": true
    },
    {
      "inputs": [
        {
          "internalType": "address",
          "name": "owner",
          "type": "address"
        },
        {
          "internalType": "address",
          "name": "spender",
          "type": "address"
        }
      ],
      "name": "allowance",
      "outputs": [
        {
          "internalType": "uint256",
          "name": "",
          "type": "uint256"
        }
      ],
      "stateMutability": "view",
      "type": "function",
      "constant": true
    },
    {
      "inputs": [
        {
          "internalType": "address",
          "name": "spender",
          "type": "address"
        },
        {
          "internalType": "uint256",
          "name": "amount",
          "type": "uint256"
        }
      ],
      "name": "approve",
      "outputs": [
        {
          "internalType": "bool",
          "name": "",
          "type": "bool"
        }
      ],
      "stateMutability": "nonpayable",
      "type": "function"
    },
    {
      "inputs": [
        {
          "internalType": "address",
          "name": "account",
          "type": "address"
        }
      ],
      "name": "balanceOf",
      "outputs": [
        {
          "internalType": "uint256",
          "name": "",
          "type": "uint256"
        }
      ],
      "stateMutability": "view",
      "type": "function",
      "constant": true
    },
    {
      "inputs": [
        {
          "internalType": "uint256",
          "name": "amount",
          "type": "uint256"
        }
      ],
      "name": "burn",
      "outputs": [],
      "stateMutability": "nonpayable",
      "type": "function"
    },
    {
      "inputs": [
        {
          "internalType": "address",
          "name": "account",
          "type": "address"
        },
        {
          "internalType": "uint256",
          "name": "amount",
          "type": "uint256"
        }
      ],
      "name": "burnFrom",
      "outputs": [],
      "stateMutability": "nonpayable",
      "type": "function"
    },
    {
      "inputs": [],
      "name": "decimals",
      "outputs": [
        {
          "internalType": "uint8",
          "name": "",
          "type": "uint8"
        }
      ],
      "stateMutability": "view",
      "type": "function",
      "constant": true
    },
    {
      "inputs": [
        {
          "internalType": "address",
          "name": "spender",
          "type": "address"
        },
        {
          "internalType": "uint256",
          "name": "subtractedValue",
          "type": "uint256"
        }
      ],
      "name": "decreaseAllowance",
      "outputs": [
        {
          "internalType": "bool",
          "name": "",
          "type": "bool"
        }
      ],
      "stateMutability": "nonpayable",
      "type": "function"
    },
    {
      "inputs": [
        {
          "internalType": "bytes32",
          "name": "role",
          "type": "bytes32"
        }
      ],
      "name": "getRoleAdmin",
      "outputs": [
        {
          "internalType": "bytes32",
          "name": "",
          "type": "bytes32"
        }
      ],
      "stateMutability": "view",
      "type": "function",
      "constant": true
    },
    {
      "inputs": [
        {
          "internalType": "bytes32",
          "name": "role",
          "type": "bytes32"
        },
        {
          "internalType": "address",
          "name": "account",
          "type": "address"
        }
      ],
      "name": "grantRole",
      "outputs": [],
      "stateMutability": "nonpayable",
      "type": "function"
    },
    {
      "inputs": [
        {
          "internalType": "bytes32",
          "name": "role",
          "type": "bytes32"
        },
        {
          "internalType": "address",
          "name": "account",
          "type": "address"
        }
      ],
      "name": "hasRole",
      "outputs": [
        {
          "internalType": "bool",
          "name": "",
          "type": "bool"
        }
      ],
      "stateMutability": "view",
      "type": "function",
      "constant": true
    },
    {
      "inputs": [
        {
          "internalType": "address",
          "name": "spender",
          "type": "address"
        },
        {
          "internalType": "uint256",
          "name": "addedValue",
          "type": "uint256"
        }
      ],
      "name": "increaseAllowance",
      "outputs": [
        {
          "internalType": "bool",
          "name": "",
          "type": "bool"
        }
      ],
      "stateMutability": "nonpayable",
      "type": "function"
    },
    {
      "inputs": [],
      "name": "name",
      "outputs": [
        {
          "internalType": "string",
          "name": "",
          "type": "string"
        }
      ],
      "stateMutability": "view",
      "type": "function",
      "constant": true
    },
    {
      "inputs": [
        {
          "internalType": "bytes32",
          "name": "role",
          "type": "bytes32"
        },
        {
          "internalType": "address",
          "name": "account",
          "type": "address"
        }
      ],
      "name": "renounceRole",
      "outputs": [],
      "stateMutability": "nonpayable",
      "type": "function"
    },
    {
      "inputs": [
        {
          "internalType": "bytes32",
          "name": "role",
          "type": "bytes32"
        },
        {
          "internalType": "address",
          "name": "account",
          "type": "address"
        }
      ],
      "name": "revokeRole",
      "outputs": [],
      "stateMutability": "nonpayable",
      "type": "function"
    },
    {
      "inputs": [
        {
          "internalType": "bytes4",
          "name": "interfaceId",
          "type": "bytes4"
        }
      ],
      "name": "supportsInterface",
      "outputs": [
        {
          "internalType": "bool",
          "name": "",
          "type": "bool"
        }
      ],
      "stateMutability": "view",
      "type": "function",
      "constant": true
    },
    {
      "inputs": [],
      "name": "symbol",
      "outputs": [
        {
          "internalType": "string",
          "name": "",
          "type": "string"
        }
      ],
      "stateMutability": "view",
      "type": "function",
      "constant": true
    },
    {
      "inputs": [],
      "name": "totalSupply",
      "outputs": [
        {
          "internalType": "uint256",
          "name": "",
          "type": "uint256"
        }
      ],
      "stateMutability": "view",
      "type": "function",
      "constant": true
    },
    {
      "inputs": [
        {
          "internalType": "address",
          "name": "to",
          "type": "address"
        },
        {
          "internalType": "uint256",
          "name": "amount",
          "type": "uint256"
        }
      ],
      "name": "transfer",
      "outputs": [
        {
          "internalType": "bool",
          "name": "",
          "type": "bool"
        }
      ],
      "stateMutability": "nonpayable",
      "type": "function"
    },
    {
      "inputs": [
        {
          "internalType": "address",
          "name": "from",
          "type": "address"
        },
        {
          "internalType": "address",
          "name": "to",
          "type": "address"
        },
        {
          "internalType": "uint256",
          "name": "amount",
          "type": "uint256"
        }
      ],
      "name": "transferFrom",
      "outputs": [
        {
          "internalType": "bool",
          "name": "",
          "type": "bool"
        }
      ],
      "stateMutability": "nonpayable",
      "type": "function"
    },
    {
      "inputs": [],
      "name": "BuyToken",
      "outputs": [],
      "stateMutability": "payable",
      "type": "function",
      "payable": true
    },
    {
      "inputs": [],
      "name": "getWalletBalance",
      "outputs": [
        {
          "internalType": "uint256",
          "name": "",
          "type": "uint256"
        }
      ],
      "stateMutability": "view",
      "type": "function",
      "constant": true
    },
    {
      "inputs": [],
      "name": "getOwner",
      "outputs": [
        {
          "internalType": "address",
          "name": "",
          "type": "address"
        }
      ],
      "stateMutability": "view",
      "type": "function",
      "constant": true
    },
    {
      "inputs": [
        {
          "internalType": "address payable",
          "name": "_to",
          "type": "address"
        },
        {
          "internalType": "uint256",
          "name": "RemainingAmount",
          "type": "uint256"
        }
      ],
      "name": "SendBalanceTouser",
      "outputs": [],
      "stateMutability": "nonpayable",
      "type": "function"
    },
    {
      "inputs": [
        {
          "internalType": "uint256",
          "name": "Token",
          "type": "uint256"
        }
      ],
      "name": "SellToken",
      "outputs": [],
      "stateMutability": "nonpayable",
      "type": "function"
    },
    {
      "inputs": [
        {
          "internalType": "address",
          "name": "_to",
          "type": "address"
        },
        {
          "internalType": "uint256",
          "name": "Token",
          "type": "uint256"
        }
      ],
      "name": "TranferToken",
      "outputs": [],
      "stateMutability": "nonpayable",
      "type": "function"
    },
    {
      "inputs": [],
      "name": "EmitDetails",
      "outputs": [],
      "stateMutability": "nonpayable",
      "type": "function"
    },
    {
      "inputs": [
        {
          "internalType": "address",
          "name": "to",
          "type": "address"
        },
        {
          "internalType": "uint256",
          "name": "amount",
          "type": "uint256"
        }
      ],
      "name": "mint",
      "outputs": [],
      "stateMutability": "nonpayable",
      "type": "function"
    }
  ],
  "bytecode": "0x6080604052670de0b6b3a764000060065560006007553480156200002257600080fd5b506040518060400160405280600981526020017f5361676f546f6b656e00000000000000000000000000000000000000000000008152506040518060400160405280600381526020017f53474e00000000000000000000000000000000000000000000000000000000008152508160039081620000a09190620006e0565b508060049081620000b29190620006e0565b50505033600860006101000a81548173ffffffffffffffffffffffffffffffffffffffff021916908373ffffffffffffffffffffffffffffffffffffffff16021790555062000134336200010b6200018160201b60201c565b600a62000119919062000957565b612710620001289190620009a8565b6200018a60201b60201c565b620001496000801b33620002f760201b60201c565b6200017b7f9f2df0fed2c77648de5860a4cc508cd0818c85b8b8a1ab4ceeef8d981c8956a633620002f760201b60201c565b62000adf565b60006012905090565b600073ffffffffffffffffffffffffffffffffffffffff168273ffffffffffffffffffffffffffffffffffffffff1603620001fc576040517f08c379a0000000000000000000000000000000000000000000000000000000008152600401620001f39062000a54565b60405180910390fd5b6200021060008383620003e960201b60201c565b806002600082825462000224919062000a76565b92505081905550806000808473ffffffffffffffffffffffffffffffffffffffff1673ffffffffffffffffffffffffffffffffffffffff168152602001908152602001600020600082825401925050819055508173ffffffffffffffffffffffffffffffffffffffff16600073ffffffffffffffffffffffffffffffffffffffff167fddf252ad1be2c89b69c2b068fc378daa952ba7f163c4a11628f55a4df523b3ef83604051620002d7919062000ac2565b60405180910390a3620002f360008383620003ee60201b60201c565b5050565b620003098282620003f360201b60201c565b620003e55760016005600084815260200190815260200160002060000160008373ffffffffffffffffffffffffffffffffffffffff1673ffffffffffffffffffffffffffffffffffffffff16815260200190815260200160002060006101000a81548160ff0219169083151502179055506200038a6200045e60201b60201c565b73ffffffffffffffffffffffffffffffffffffffff168173ffffffffffffffffffffffffffffffffffffffff16837f2f8788117e7eff1d82e926ec794901d17c78024a50270940304540a733656f0d60405160405180910390a45b5050565b505050565b505050565b60006005600084815260200190815260200160002060000160008373ffffffffffffffffffffffffffffffffffffffff1673ffffffffffffffffffffffffffffffffffffffff16815260200190815260200160002060009054906101000a900460ff16905092915050565b600033905090565b600081519050919050565b7f4e487b7100000000000000000000000000000000000000000000000000000000600052604160045260246000fd5b7f4e487b7100000000000000000000000000000000000000000000000000000000600052602260045260246000fd5b60006002820490506001821680620004e857607f821691505b602082108103620004fe57620004fd620004a0565b5b50919050565b60008190508160005260206000209050919050565b60006020601f8301049050919050565b600082821b905092915050565b600060088302620005687fffffffffffffffffffffffffffffffffffffffffffffffffffffffffffffffff8262000529565b62000574868362000529565b95508019841693508086168417925050509392505050565b6000819050919050565b6000819050919050565b6000620005c1620005bb620005b5846200058c565b62000596565b6200058c565b9050919050565b6000819050919050565b620005dd83620005a0565b620005f5620005ec82620005c8565b84845462000536565b825550505050565b600090565b6200060c620005fd565b62000619818484620005d2565b505050565b5b8181101562000641576200063560008262000602565b6001810190506200061f565b5050565b601f82111562000690576200065a8162000504565b620006658462000519565b8101602085101562000675578190505b6200068d620006848562000519565b8301826200061e565b50505b505050565b600082821c905092915050565b6000620006b56000198460080262000695565b1980831691505092915050565b6000620006d08383620006a2565b9150826002028217905092915050565b620006eb8262000466565b67ffffffffffffffff81111562000707576200070662000471565b5b620007138254620004cf565b6200072082828562000645565b600060209050601f83116001811462000758576000841562000743578287015190505b6200074f8582620006c2565b865550620007bf565b601f198416620007688662000504565b60005b8281101562000792578489015182556001820191506020850194506020810190506200076b565b86831015620007b25784890151620007ae601f891682620006a2565b8355505b6001600288020188555050505b505050505050565b7f4e487b7100000000000000000000000000000000000000000000000000000000600052601160045260246000fd5b60008160011c9050919050565b6000808291508390505b600185111562000855578086048111156200082d576200082c620007c7565b5b60018516156200083d5780820291505b80810290506200084d85620007f6565b94506200080d565b94509492505050565b60008262000870576001905062000943565b8162000880576000905062000943565b8160018114620008995760028114620008a457620008da565b600191505062000943565b60ff841115620008b957620008b8620007c7565b5b8360020a915084821115620008d357620008d2620007c7565b5b5062000943565b5060208310610133831016604e8410600b8410161715620009145782820a9050838111156200090e576200090d620007c7565b5b62000943565b62000923848484600162000803565b925090508184048111156200093d576200093c620007c7565b5b81810290505b9392505050565b600060ff82169050919050565b600062000964826200058c565b915062000971836200094a565b9250620009a07fffffffffffffffffffffffffffffffffffffffffffffffffffffffffffffffff84846200085e565b905092915050565b6000620009b5826200058c565b9150620009c2836200058c565b9250828202620009d2816200058c565b91508282048414831517620009ec57620009eb620007c7565b5b5092915050565b600082825260208201905092915050565b7f45524332303a206d696e7420746f20746865207a65726f206164647265737300600082015250565b600062000a3c601f83620009f3565b915062000a498262000a04565b602082019050919050565b6000602082019050818103600083015262000a6f8162000a2d565b9050919050565b600062000a83826200058c565b915062000a90836200058c565b925082820190508082111562000aab5762000aaa620007c7565b5b92915050565b62000abc816200058c565b82525050565b600060208201905062000ad9600083018462000ab1565b92915050565b6136518062000aef6000396000f3fe6080604052600436106101c25760003560e01c806342966c68116100f7578063a217fddf11610095578063d539139311610064578063d539139314610659578063d547741f14610684578063dd62ed3e146106ad578063f56c9ef7146106ea576101c2565b8063a217fddf1461058b578063a457c2d7146105b6578063a763ef65146105f3578063a9059cbb1461061c576101c2565b806379cc6790116100d157806379cc6790146104cf578063893d20e8146104f857806391d148541461052357806395d89b4114610560576101c2565b806342966c6814610440578063445e5b061461046957806370a0823114610492576101c2565b80632f2ff15d1161016457806336568abe1161013e57806336568abe146103a757806339509351146103d057806340c10f191461040d57806341852eb214610436576101c2565b80632f2ff15d14610328578063313ce56714610351578063329a27e71461037c576101c2565b806318160ddd116101a057806318160ddd1461026c5780631a1acdb91461029757806323b872dd146102ae578063248a9ca3146102eb576101c2565b806301ffc9a7146101c757806306fdde0314610204578063095ea7b31461022f575b600080fd5b3480156101d357600080fd5b506101ee60048036038101906101e991906122b2565b610713565b6040516101fb91906122fa565b60405180910390f35b34801561021057600080fd5b5061021961078d565b60405161022691906123a5565b60405180910390f35b34801561023b57600080fd5b506102566004803603810190610251919061245b565b61081f565b60405161026391906122fa565b60405180910390f35b34801561027857600080fd5b50610281610842565b60405161028e91906124aa565b60405180910390f35b3480156102a357600080fd5b506102ac61084c565b005b3480156102ba57600080fd5b506102d560048036038101906102d091906124c5565b610992565b6040516102e291906122fa565b60405180910390f35b3480156102f757600080fd5b50610312600480360381019061030d919061254e565b6109c1565b60405161031f919061258a565b60405180910390f35b34801561033457600080fd5b5061034f600480360381019061034a91906125a5565b6109e1565b005b34801561035d57600080fd5b50610366610a02565b6040516103739190612601565b60405180910390f35b34801561038857600080fd5b50610391610a0b565b60405161039e91906124aa565b60405180910390f35b3480156103b357600080fd5b506103ce60048036038101906103c991906125a5565b610a13565b005b3480156103dc57600080fd5b506103f760048036038101906103f2919061245b565b610a96565b60405161040491906122fa565b60405180910390f35b34801561041957600080fd5b50610434600480360381019061042f919061245b565b610acd565b005b61043e610b06565b005b34801561044c57600080fd5b506104676004803603810190610462919061261c565b610df6565b005b34801561047557600080fd5b50610490600480360381019061048b919061261c565b610e0a565b005b34801561049e57600080fd5b506104b960048036038101906104b49190612649565b610f09565b6040516104c691906124aa565b60405180910390f35b3480156104db57600080fd5b506104f660048036038101906104f1919061245b565b610f51565b005b34801561050457600080fd5b5061050d610f71565b60405161051a9190612685565b60405180910390f35b34801561052f57600080fd5b5061054a600480360381019061054591906125a5565b610f9b565b60405161055791906122fa565b60405180910390f35b34801561056c57600080fd5b50610575611006565b60405161058291906123a5565b60405180910390f35b34801561059757600080fd5b506105a0611098565b6040516105ad919061258a565b60405180910390f35b3480156105c257600080fd5b506105dd60048036038101906105d8919061245b565b61109f565b6040516105ea91906122fa565b60405180910390f35b3480156105ff57600080fd5b5061061a6004803603810190610615919061245b565b611116565b005b34801561062857600080fd5b50610643600480360381019061063e919061245b565b6111b4565b60405161065091906122fa565b60405180910390f35b34801561066557600080fd5b5061066e6111d7565b60405161067b919061258a565b60405180910390f35b34801561069057600080fd5b506106ab60048036038101906106a691906125a5565b6111fb565b005b3480156106b957600080fd5b506106d460048036038101906106cf91906126a0565b61121c565b6040516106e191906124aa565b60405180910390f35b3480156106f657600080fd5b50610711600480360381019061070c919061271e565b6112a3565b005b60007f7965db0b000000000000000000000000000000000000000000000000000000007bffffffffffffffffffffffffffffffffffffffffffffffffffffffff1916827bffffffffffffffffffffffffffffffffffffffffffffffffffffffff19161480610786575061078582611330565b5b9050919050565b60606003805461079c9061278d565b80601f01602080910402602001604051908101604052809291908181526020018280546107c89061278d565b80156108155780601f106107ea57610100808354040283529160200191610815565b820191906000526020600020905b8154815290600101906020018083116107f857829003601f168201915b5050505050905090565b60008061082a61139a565b90506108378185856113a2565b600191505092915050565b6000600254905090565b61088b6040518060400160405280600d81526020017f55736572204163636f756e743a000000000000000000000000000000000000008152503361156b565b6108f06040518060400160405280600d81526020017f557365722042616c616e63653a000000000000000000000000000000000000008152506108cc610a02565b600a6108d89190612920565b6108e133610f09565b6108eb919061299a565b611607565b7f504df14a115f2a67fe973c052c20e20402d57f5d3b9920c1a551925d61eb165860065461091c610842565b610926919061299a565b600654600754600654610937610842565b610941919061299a565b61094b91906129cb565b60065461095733610f09565b610961919061299a565b60065461096d33610f09565b610977919061299a565b6040516109889594939291906129ff565b60405180910390a1565b60008061099d61139a565b90506109aa8582856116a3565b6109b585858561172f565b60019150509392505050565b600060056000838152602001908152602001600020600101549050919050565b6109ea826109c1565b6109f3816119a5565b6109fd83836119b9565b505050565b60006012905090565b600047905090565b610a1b61139a565b73ffffffffffffffffffffffffffffffffffffffff168173ffffffffffffffffffffffffffffffffffffffff1614610a88576040517f08c379a0000000000000000000000000000000000000000000000000000000008152600401610a7f90612ac4565b60405180910390fd5b610a928282611a9a565b5050565b600080610aa161139a565b9050610ac2818585610ab3858961121c565b610abd9190612ae4565b6113a2565b600191505092915050565b7f9f2df0fed2c77648de5860a4cc508cd0818c85b8b8a1ab4ceeef8d981c8956a6610af7816119a5565b610b018383611b7c565b505050565b3373ffffffffffffffffffffffffffffffffffffffff16313410610b5f576040517f08c379a0000000000000000000000000000000000000000000000000000000008152600401610b5690612b64565b60405180910390fd5b600654341015610ba4576040517f08c379a0000000000000000000000000000000000000000000000000000000008152600401610b9b90612bf6565b60405180910390fd5b610bc56040518060600160405280603281526020016135ea60329139611cd2565b610c266040518060400160405280600681526020017f6f776e65723a0000000000000000000000000000000000000000000000000000815250600860009054906101000a900473ffffffffffffffffffffffffffffffffffffffff1661156b565b600060065434610c36919061299a565b9050600060065434610c489190612c16565b9050610c896040518060400160405280600f81526020017f5472616e736665726564546f6b656e000000000000000000000000000000000081525083611607565b610cdb6040518060400160405280600f81526020017f646563696d616c56616c75653a20310000000000000000000000000000000000815250610cca610a02565b600a610cd69190612920565b611607565b610d1c6040518060400160405280600a81526020017f546f656b6e507269636500000000000000000000000000000000000000000000815250600654611607565b610d67600860009054906101000a900473ffffffffffffffffffffffffffffffffffffffff1633610d4b610a02565b600a610d579190612920565b85610d629190612c47565b61172f565b8160076000828254610d799190612ae4565b925050819055507fd4eb895972812af3c59f668d7f6ae9da1e75c7cd0f576b76e414c6ace85df4b23433843373ffffffffffffffffffffffffffffffffffffffff163185604051610dce959493929190612c89565b60405180910390a16000811115610dea57610de933826112a3565b5b610df261084c565b5050565b610e07610e0161139a565b82611d6b565b50565b610e1333610f09565b610e1b610a02565b600a610e279190612920565b82610e329190612c47565b1115610e73576040517f08c379a0000000000000000000000000000000000000000000000000000000008152600401610e6a90612d28565b60405180910390fd5b8060076000828254610e8591906129cb565b92505081905550610ed733600860009054906101000a900473ffffffffffffffffffffffffffffffffffffffff16610ebb610a02565b600a610ec79190612920565b84610ed29190612c47565b61172f565b600060065482610ee79190612c47565b90506000811115610efd57610efc33826112a3565b5b610f0561084c565b5050565b60008060008373ffffffffffffffffffffffffffffffffffffffff1673ffffffffffffffffffffffffffffffffffffffff168152602001908152602001600020549050919050565b610f6382610f5d61139a565b836116a3565b610f6d8282611d6b565b5050565b6000600860009054906101000a900473ffffffffffffffffffffffffffffffffffffffff16905090565b60006005600084815260200190815260200160002060000160008373ffffffffffffffffffffffffffffffffffffffff1673ffffffffffffffffffffffffffffffffffffffff16815260200190815260200160002060009054906101000a900460ff16905092915050565b6060600480546110159061278d565b80601f01602080910402602001604051908101604052809291908181526020018280546110419061278d565b801561108e5780601f106110635761010080835404028352916020019161108e565b820191906000526020600020905b81548152906001019060200180831161107157829003601f168201915b5050505050905090565b6000801b81565b6000806110aa61139a565b905060006110b8828661121c565b9050838110156110fd576040517f08c379a00000000000000000000000000000000000000000000000000000000081526004016110f490612dba565b60405180910390fd5b61110a82868684036113a2565b60019250505092915050565b61111f33610f09565b611127610a02565b600a6111339190612920565b8261113e9190612c47565b111561117f576040517f08c379a000000000000000000000000000000000000000000000000000000000815260040161117690612e26565b60405180910390fd5b6111a8338361118c610a02565b600a6111989190612920565b846111a39190612c47565b61172f565b6111b061084c565b5050565b6000806111bf61139a565b90506111cc81858561172f565b600191505092915050565b7f9f2df0fed2c77648de5860a4cc508cd0818c85b8b8a1ab4ceeef8d981c8956a681565b611204826109c1565b61120d816119a5565b6112178383611a9a565b505050565b6000600160008473ffffffffffffffffffffffffffffffffffffffff1673ffffffffffffffffffffffffffffffffffffffff16815260200190815260200160002060008373ffffffffffffffffffffffffffffffffffffffff1673ffffffffffffffffffffffffffffffffffffffff16815260200190815260200160002054905092915050565b4781106112e5576040517f08c379a00000000000000000000000000000000000000000000000000000000081526004016112dc90612e92565b60405180910390fd5b8173ffffffffffffffffffffffffffffffffffffffff166108fc829081150290604051600060405180830381858888f1935050505015801561132b573d6000803e3d6000fd5b505050565b60007f01ffc9a7000000000000000000000000000000000000000000000000000000007bffffffffffffffffffffffffffffffffffffffffffffffffffffffff1916827bffffffffffffffffffffffffffffffffffffffffffffffffffffffff1916149050919050565b600033905090565b600073ffffffffffffffffffffffffffffffffffffffff168373ffffffffffffffffffffffffffffffffffffffff1603611411576040517f08c379a000000000000000000000000000000000000000000000000000000000815260040161140890612f24565b60405180910390fd5b600073ffffffffffffffffffffffffffffffffffffffff168273ffffffffffffffffffffffffffffffffffffffff1603611480576040517f08c379a000000000000000000000000000000000000000000000000000000000815260040161147790612fb6565b60405180910390fd5b80600160008573ffffffffffffffffffffffffffffffffffffffff1673ffffffffffffffffffffffffffffffffffffffff16815260200190815260200160002060008473ffffffffffffffffffffffffffffffffffffffff1673ffffffffffffffffffffffffffffffffffffffff168152602001908152602001600020819055508173ffffffffffffffffffffffffffffffffffffffff168373ffffffffffffffffffffffffffffffffffffffff167f8c5be1e5ebec7d5bd14f71427d1e84f3dd0314c0f7b2291e5b200ac8c7c3b9258360405161155e91906124aa565b60405180910390a3505050565b6116038282604051602401611581929190612fd6565b6040516020818303038152906040527f319af333000000000000000000000000000000000000000000000000000000007bffffffffffffffffffffffffffffffffffffffffffffffffffffffff19166020820180517bffffffffffffffffffffffffffffffffffffffffffffffffffffffff8381831617835250505050611f38565b5050565b61169f828260405160240161161d929190613006565b6040516020818303038152906040527fb60e72cc000000000000000000000000000000000000000000000000000000007bffffffffffffffffffffffffffffffffffffffffffffffffffffffff19166020820180517bffffffffffffffffffffffffffffffffffffffffffffffffffffffff8381831617835250505050611f38565b5050565b60006116af848461121c565b90507fffffffffffffffffffffffffffffffffffffffffffffffffffffffffffffffff8114611729578181101561171b576040517f08c379a000000000000000000000000000000000000000000000000000000000815260040161171290613082565b60405180910390fd5b61172884848484036113a2565b5b50505050565b600073ffffffffffffffffffffffffffffffffffffffff168373ffffffffffffffffffffffffffffffffffffffff160361179e576040517f08c379a000000000000000000000000000000000000000000000000000000000815260040161179590613114565b60405180910390fd5b600073ffffffffffffffffffffffffffffffffffffffff168273ffffffffffffffffffffffffffffffffffffffff160361180d576040517f08c379a0000000000000000000000000000000000000000000000000000000008152600401611804906131a6565b60405180910390fd5b611818838383611f5d565b60008060008573ffffffffffffffffffffffffffffffffffffffff1673ffffffffffffffffffffffffffffffffffffffff1681526020019081526020016000205490508181101561189e576040517f08c379a000000000000000000000000000000000000000000000000000000000815260040161189590613238565b60405180910390fd5b8181036000808673ffffffffffffffffffffffffffffffffffffffff1673ffffffffffffffffffffffffffffffffffffffff16815260200190815260200160002081905550816000808573ffffffffffffffffffffffffffffffffffffffff1673ffffffffffffffffffffffffffffffffffffffff168152602001908152602001600020600082825401925050819055508273ffffffffffffffffffffffffffffffffffffffff168473ffffffffffffffffffffffffffffffffffffffff167fddf252ad1be2c89b69c2b068fc378daa952ba7f163c4a11628f55a4df523b3ef8460405161198c91906124aa565b60405180910390a361199f848484611f62565b50505050565b6119b6816119b161139a565b611f67565b50565b6119c38282610f9b565b611a965760016005600084815260200190815260200160002060000160008373ffffffffffffffffffffffffffffffffffffffff1673ffffffffffffffffffffffffffffffffffffffff16815260200190815260200160002060006101000a81548160ff021916908315150217905550611a3b61139a565b73ffffffffffffffffffffffffffffffffffffffff168173ffffffffffffffffffffffffffffffffffffffff16837f2f8788117e7eff1d82e926ec794901d17c78024a50270940304540a733656f0d60405160405180910390a45b5050565b611aa48282610f9b565b15611b785760006005600084815260200190815260200160002060000160008373ffffffffffffffffffffffffffffffffffffffff1673ffffffffffffffffffffffffffffffffffffffff16815260200190815260200160002060006101000a81548160ff021916908315150217905550611b1d61139a565b73ffffffffffffffffffffffffffffffffffffffff168173ffffffffffffffffffffffffffffffffffffffff16837ff6391f5c32d9c69d2a47ea670b442974b53935d1edc7fd64eb21e047a839171b60405160405180910390a45b5050565b600073ffffffffffffffffffffffffffffffffffffffff168273ffffffffffffffffffffffffffffffffffffffff1603611beb576040517f08c379a0000000000000000000000000000000000000000000000000000000008152600401611be2906132a4565b60405180910390fd5b611bf760008383611f5d565b8060026000828254611c099190612ae4565b92505081905550806000808473ffffffffffffffffffffffffffffffffffffffff1673ffffffffffffffffffffffffffffffffffffffff168152602001908152602001600020600082825401925050819055508173ffffffffffffffffffffffffffffffffffffffff16600073ffffffffffffffffffffffffffffffffffffffff167fddf252ad1be2c89b69c2b068fc378daa952ba7f163c4a11628f55a4df523b3ef83604051611cba91906124aa565b60405180910390a3611cce60008383611f62565b5050565b611d6881604051602401611ce691906123a5565b6040516020818303038152906040527f41304fac000000000000000000000000000000000000000000000000000000007bffffffffffffffffffffffffffffffffffffffffffffffffffffffff19166020820180517bffffffffffffffffffffffffffffffffffffffffffffffffffffffff8381831617835250505050611f38565b50565b600073ffffffffffffffffffffffffffffffffffffffff168273ffffffffffffffffffffffffffffffffffffffff1603611dda576040517f08c379a0000000000000000000000000000000000000000000000000000000008152600401611dd190613336565b60405180910390fd5b611de682600083611f5d565b60008060008473ffffffffffffffffffffffffffffffffffffffff1673ffffffffffffffffffffffffffffffffffffffff16815260200190815260200160002054905081811015611e6c576040517f08c379a0000000000000000000000000000000000000000000000000000000008152600401611e63906133c8565b60405180910390fd5b8181036000808573ffffffffffffffffffffffffffffffffffffffff1673ffffffffffffffffffffffffffffffffffffffff1681526020019081526020016000208190555081600260008282540392505081905550600073ffffffffffffffffffffffffffffffffffffffff168373ffffffffffffffffffffffffffffffffffffffff167fddf252ad1be2c89b69c2b068fc378daa952ba7f163c4a11628f55a4df523b3ef84604051611f1f91906124aa565b60405180910390a3611f3383600084611f62565b505050565b60006a636f6e736f6c652e6c6f6790508151602083016000808383865afa5050505050565b505050565b505050565b611f718282610f9b565b611fe857611f7e81611fec565b611f8c8360001c6020612019565b604051602001611f9d9291906134bc565b6040516020818303038152906040526040517f08c379a0000000000000000000000000000000000000000000000000000000008152600401611fdf91906123a5565b60405180910390fd5b5050565b60606120128273ffffffffffffffffffffffffffffffffffffffff16601460ff16612019565b9050919050565b60606000600283600261202c9190612c47565b6120369190612ae4565b67ffffffffffffffff81111561204f5761204e6134f6565b5b6040519080825280601f01601f1916602001820160405280156120815781602001600182028036833780820191505090505b5090507f3000000000000000000000000000000000000000000000000000000000000000816000815181106120b9576120b8613525565b5b60200101907effffffffffffffffffffffffffffffffffffffffffffffffffffffffffffff1916908160001a9053507f78000000000000000000000000000000000000000000000000000000000000008160018151811061211d5761211c613525565b5b60200101907effffffffffffffffffffffffffffffffffffffffffffffffffffffffffffff1916908160001a9053506000600184600261215d9190612c47565b6121679190612ae4565b90505b6001811115612207577f3031323334353637383961626364656600000000000000000000000000000000600f8616601081106121a9576121a8613525565b5b1a60f81b8282815181106121c0576121bf613525565b5b60200101907effffffffffffffffffffffffffffffffffffffffffffffffffffffffffffff1916908160001a905350600485901c94508061220090613554565b905061216a565b506000841461224b576040517f08c379a0000000000000000000000000000000000000000000000000000000008152600401612242906135c9565b60405180910390fd5b8091505092915050565b600080fd5b60007fffffffff0000000000000000000000000000000000000000000000000000000082169050919050565b61228f8161225a565b811461229a57600080fd5b50565b6000813590506122ac81612286565b92915050565b6000602082840312156122c8576122c7612255565b5b60006122d68482850161229d565b91505092915050565b60008115159050919050565b6122f4816122df565b82525050565b600060208201905061230f60008301846122eb565b92915050565b600081519050919050565b600082825260208201905092915050565b60005b8381101561234f578082015181840152602081019050612334565b60008484015250505050565b6000601f19601f8301169050919050565b600061237782612315565b6123818185612320565b9350612391818560208601612331565b61239a8161235b565b840191505092915050565b600060208201905081810360008301526123bf818461236c565b905092915050565b600073ffffffffffffffffffffffffffffffffffffffff82169050919050565b60006123f2826123c7565b9050919050565b612402816123e7565b811461240d57600080fd5b50565b60008135905061241f816123f9565b92915050565b6000819050919050565b61243881612425565b811461244357600080fd5b50565b6000813590506124558161242f565b92915050565b6000806040838503121561247257612471612255565b5b600061248085828601612410565b925050602061249185828601612446565b9150509250929050565b6124a481612425565b82525050565b60006020820190506124bf600083018461249b565b92915050565b6000806000606084860312156124de576124dd612255565b5b60006124ec86828701612410565b93505060206124fd86828701612410565b925050604061250e86828701612446565b9150509250925092565b6000819050919050565b61252b81612518565b811461253657600080fd5b50565b60008135905061254881612522565b92915050565b60006020828403121561256457612563612255565b5b600061257284828501612539565b91505092915050565b61258481612518565b82525050565b600060208201905061259f600083018461257b565b92915050565b600080604083850312156125bc576125bb612255565b5b60006125ca85828601612539565b92505060206125db85828601612410565b9150509250929050565b600060ff82169050919050565b6125fb816125e5565b82525050565b600060208201905061261660008301846125f2565b92915050565b60006020828403121561263257612631612255565b5b600061264084828501612446565b91505092915050565b60006020828403121561265f5761265e612255565b5b600061266d84828501612410565b91505092915050565b61267f816123e7565b82525050565b600060208201905061269a6000830184612676565b92915050565b600080604083850312156126b7576126b6612255565b5b60006126c585828601612410565b92505060206126d685828601612410565b9150509250929050565b60006126eb826123c7565b9050919050565b6126fb816126e0565b811461270657600080fd5b50565b600081359050612718816126f2565b92915050565b6000806040838503121561273557612734612255565b5b600061274385828601612709565b925050602061275485828601612446565b9150509250929050565b7f4e487b7100000000000000000000000000000000000000000000000000000000600052602260045260246000fd5b600060028204905060018216806127a557607f821691505b6020821081036127b8576127b761275e565b5b50919050565b7f4e487b7100000000000000000000000000000000000000000000000000000000600052601160045260246000fd5b60008160011c9050919050565b6000808291508390505b6001851115612844578086048111156128205761281f6127be565b5b600185161561282f5780820291505b808102905061283d856127ed565b9450612804565b94509492505050565b60008261285d5760019050612919565b8161286b5760009050612919565b8160018114612881576002811461288b576128ba565b6001915050612919565b60ff84111561289d5761289c6127be565b5b8360020a9150848211156128b4576128b36127be565b5b50612919565b5060208310610133831016604e8410600b84101617156128ef5782820a9050838111156128ea576128e96127be565b5b612919565b6128fc84848460016127fa565b92509050818404811115612913576129126127be565b5b81810290505b9392505050565b600061292b82612425565b9150612936836125e5565b92506129637fffffffffffffffffffffffffffffffffffffffffffffffffffffffffffffffff848461284d565b905092915050565b7f4e487b7100000000000000000000000000000000000000000000000000000000600052601260045260246000fd5b60006129a582612425565b91506129b083612425565b9250826129c0576129bf61296b565b5b828204905092915050565b60006129d682612425565b91506129e183612425565b92508282039050818111156129f9576129f86127be565b5b92915050565b600060a082019050612a14600083018861249b565b612a21602083018761249b565b612a2e604083018661249b565b612a3b606083018561249b565b612a48608083018461249b565b9695505050505050565b7f416363657373436f6e74726f6c3a2063616e206f6e6c792072656e6f756e636560008201527f20726f6c657320666f722073656c660000000000000000000000000000000000602082015250565b6000612aae602f83612320565b9150612ab982612a52565b604082019050919050565b60006020820190508181036000830152612add81612aa1565b9050919050565b6000612aef82612425565b9150612afa83612425565b9250828201905080821115612b1257612b116127be565b5b92915050565b7f596f7520646f6e7420686176652073756666696369656e742066756e64000000600082015250565b6000612b4e601d83612320565b9150612b5982612b18565b602082019050919050565b60006020820190508181036000830152612b7d81612b41565b9050919050565b7f4e65656420746f207472616e666572206d6f6e6579206865696768657220746860008201527f616e20746f6b656e20616d6f756e740000000000000000000000000000000000602082015250565b6000612be0602f83612320565b9150612beb82612b84565b604082019050919050565b60006020820190508181036000830152612c0f81612bd3565b9050919050565b6000612c2182612425565b9150612c2c83612425565b925082612c3c57612c3b61296b565b5b828206905092915050565b6000612c5282612425565b9150612c5d83612425565b9250828202612c6b81612425565b91508282048414831517612c8257612c816127be565b5b5092915050565b600060a082019050612c9e600083018861249b565b612cab6020830187612676565b612cb8604083018661249b565b612cc5606083018561249b565b612cd2608083018461249b565b9695505050505050565b7f546f6b656e206e6f7420617661696c61626c6520747279206c65737300000000600082015250565b6000612d12601c83612320565b9150612d1d82612cdc565b602082019050919050565b60006020820190508181036000830152612d4181612d05565b9050919050565b7f45524332303a2064656372656173656420616c6c6f77616e63652062656c6f7760008201527f207a65726f000000000000000000000000000000000000000000000000000000602082015250565b6000612da4602583612320565b9150612daf82612d48565b604082019050919050565b60006020820190508181036000830152612dd381612d97565b9050919050565b7f596f7520646f6e742068617665206d75636820746f6b656e0000000000000000600082015250565b6000612e10601883612320565b9150612e1b82612dda565b602082019050919050565b60006020820190508181036000830152612e3f81612e03565b9050919050565b7f42616c616e6365206e6f742073756666696369656e7400000000000000000000600082015250565b6000612e7c601683612320565b9150612e8782612e46565b602082019050919050565b60006020820190508181036000830152612eab81612e6f565b9050919050565b7f45524332303a20617070726f76652066726f6d20746865207a65726f2061646460008201527f7265737300000000000000000000000000000000000000000000000000000000602082015250565b6000612f0e602483612320565b9150612f1982612eb2565b604082019050919050565b60006020820190508181036000830152612f3d81612f01565b9050919050565b7f45524332303a20617070726f766520746f20746865207a65726f20616464726560008201527f7373000000000000000000000000000000000000000000000000000000000000602082015250565b6000612fa0602283612320565b9150612fab82612f44565b604082019050919050565b60006020820190508181036000830152612fcf81612f93565b9050919050565b60006040820190508181036000830152612ff0818561236c565b9050612fff6020830184612676565b9392505050565b60006040820190508181036000830152613020818561236c565b905061302f602083018461249b565b9392505050565b7f45524332303a20696e73756666696369656e7420616c6c6f77616e6365000000600082015250565b600061306c601d83612320565b915061307782613036565b602082019050919050565b6000602082019050818103600083015261309b8161305f565b9050919050565b7f45524332303a207472616e736665722066726f6d20746865207a65726f20616460008201527f6472657373000000000000000000000000000000000000000000000000000000602082015250565b60006130fe602583612320565b9150613109826130a2565b604082019050919050565b6000602082019050818103600083015261312d816130f1565b9050919050565b7f45524332303a207472616e7366657220746f20746865207a65726f206164647260008201527f6573730000000000000000000000000000000000000000000000000000000000602082015250565b6000613190602383612320565b915061319b82613134565b604082019050919050565b600060208201905081810360008301526131bf81613183565b9050919050565b7f45524332303a207472616e7366657220616d6f756e742065786365656473206260008201527f616c616e63650000000000000000000000000000000000000000000000000000602082015250565b6000613222602683612320565b915061322d826131c6565b604082019050919050565b6000602082019050818103600083015261325181613215565b9050919050565b7f45524332303a206d696e7420746f20746865207a65726f206164647265737300600082015250565b600061328e601f83612320565b915061329982613258565b602082019050919050565b600060208201905081810360008301526132bd81613281565b9050919050565b7f45524332303a206275726e2066726f6d20746865207a65726f2061646472657360008201527f7300000000000000000000000000000000000000000000000000000000000000602082015250565b6000613320602183612320565b915061332b826132c4565b604082019050919050565b6000602082019050818103600083015261334f81613313565b9050919050565b7f45524332303a206275726e20616d6f756e7420657863656564732062616c616e60008201527f6365000000000000000000000000000000000000000000000000000000000000602082015250565b60006133b2602283612320565b91506133bd82613356565b604082019050919050565b600060208201905081810360008301526133e1816133a5565b9050919050565b600081905092915050565b7f416363657373436f6e74726f6c3a206163636f756e7420000000000000000000600082015250565b60006134296017836133e8565b9150613434826133f3565b601782019050919050565b600061344a82612315565b61345481856133e8565b9350613464818560208601612331565b80840191505092915050565b7f206973206d697373696e6720726f6c6520000000000000000000000000000000600082015250565b60006134a66011836133e8565b91506134b182613470565b601182019050919050565b60006134c78261341c565b91506134d3828561343f565b91506134de82613499565b91506134ea828461343f565b91508190509392505050565b7f4e487b7100000000000000000000000000000000000000000000000000000000600052604160045260246000fd5b7f4e487b7100000000000000000000000000000000000000000000000000000000600052603260045260246000fd5b600061355f82612425565b915060008203613572576135716127be565b5b600182039050919050565b7f537472696e67733a20686578206c656e67746820696e73756666696369656e74600082015250565b60006135b3602083612320565b91506135be8261357d565b602082019050919050565b600060208201905081810360008301526135e2816135a6565b905091905056fe2a2a2a2a2a2a2a2a2a2a2a2a2a2a2a2a2a2a2a2042757920546f6b656e202a2a2a2a2a2a2a2a2a2a2a2a2a2a2a2a2a2a2a2aa26469706673582212209e7dd8126556932e9f846766771f490dd7ee650f9a9dd2d11f9cf8cb7e5289d564736f6c63430008130033",
  "immutableReferences": {},
  "source": "// SPDX-License-Identifier: MIT\r\npragma solidity ^0.8.4;\r\nimport \"@openzeppelin/contracts/token/ERC20/ERC20.sol\";\r\nimport \"@openzeppelin/contracts/token/ERC20/extensions/ERC20Burnable.sol\";\r\nimport \"@openzeppelin/contracts/access/AccessControl.sol\";\r\n\r\nimport \"@ganache/console.log/console.sol\";\r\n\r\ncontract SagoToken is ERC20, ERC20Burnable, AccessControl {\r\n    bytes32 public constant MINTER_ROLE = keccak256(\"MINTER_ROLE\");\r\n    uint256 TokenPrice = 1 ether;\r\n   uint TotalSoldAmount =0;\r\n    event BuyTokenEvent(\r\n        uint256 amount,\r\n        address Buyer,\r\n        uint256 NoofToken,  \r\n        uint256 totalBalance,\r\n        uint256 returnAmount\r\n    );\r\n    event TransferBalanceEvnet(\r\n        uint256 OwnerBalance,\r\n        uint256 Transferedamount,\r\n        address Receiptend\r\n    );\r\n    event GetDetails(\r\n        uint256 TotalSupply,\r\n        uint256 SGNPrice,\r\n        uint256 CurrentSupply,\r\n        uint256 TotalUserTOken,\r\n        uint256 TotalPrice\r\n    );\r\n    address  Owner;\r\n    constructor() ERC20(\"SagoToken\", \"SGN\") {\r\n        Owner = msg.sender;\r\n        _mint(msg.sender, 10000* 10 ** decimals());\r\n        _grantRole(DEFAULT_ADMIN_ROLE, msg.sender);\r\n        _grantRole(MINTER_ROLE, msg.sender);\r\n    }\r\n\r\n  function BuyToken() public payable {\r\n      require(msg.value < address(msg.sender).balance,\"You dont have sufficient fund\");\r\n      require(msg.value >= TokenPrice,\"Need to tranfer money heigher than token amount\");\r\n      console.log(\"******************* Buy Token ********************\");\r\n      console.log(\"owner:\",  Owner);\r\n      uint Token = msg.value / TokenPrice;\r\n      uint RemainingAmount = msg.value % TokenPrice;\r\n      console.log(\"TransferedToken\",Token);\r\n      console.log(\"decimalValue: 1\",10 ** decimals());\r\n      console.log(\"ToeknPrice\",TokenPrice);\r\n      _transfer(Owner, msg.sender,Token  * 10 ** decimals());\r\n      TotalSoldAmount += Token;\r\n      emit BuyTokenEvent(msg.value,msg.sender,Token,address(msg.sender).balance,RemainingAmount);\r\n      if(RemainingAmount > 0)\r\n      {\r\n         SendBalanceTouser(payable(msg.sender),RemainingAmount);\r\n      }\r\n      EmitDetails(); \r\n\r\n  }\r\n\r\n  function getWalletBalance()public view returns(uint256)\r\n  {\r\n      return address(this).balance;\r\n  }\r\n   function getOwner()public view returns(address)\r\n  {\r\n      return Owner;\r\n  }\r\n  function SendBalanceTouser(address payable _to,uint256 RemainingAmount) public\r\n  {\r\n        require(RemainingAmount < address(this).balance,\"Balance not sufficient\");\r\n        _to.transfer(RemainingAmount);\r\n  }\r\n\r\n  function SellToken(uint Token) public{\r\n      require((Token * 10 ** decimals()) <= balanceOf(msg.sender),\"Token not available try less\");\r\n      TotalSoldAmount -= Token;\r\n      _transfer(msg.sender,Owner,Token* 10 ** decimals());\r\n      uint ReturnAmount = Token * TokenPrice;\r\n      if(ReturnAmount > 0)\r\n      SendBalanceTouser(payable(msg.sender),ReturnAmount);\r\n      EmitDetails() ;\r\n  }\r\n  function TranferToken(address _to,uint Token) public{\r\n      require(Token* 10 ** decimals()  <= balanceOf(msg.sender),\"You dont have much token\");\r\n      _transfer(msg.sender,_to,Token* 10 ** decimals());\r\n        EmitDetails(); \r\n  }\r\n\r\n   function EmitDetails() public{\r\n        console.log(\"User Account:\",  msg.sender);\r\n        console.log(\"User Balance:\",  balanceOf(msg.sender)/(10 ** decimals()));\r\n       emit GetDetails(\r\n        totalSupply()/TokenPrice,\r\n        TokenPrice,\r\n        ((totalSupply()/TokenPrice) - TotalSoldAmount),\r\n        balanceOf(msg.sender)/TokenPrice,\r\n        balanceOf(msg.sender)/TokenPrice\r\n       );\r\n   }\r\n\r\n    function mint(address to, uint256 amount) public onlyRole(MINTER_ROLE) {\r\n        _mint(to, amount);\r\n    }\r\n      \r\n}\r\n",
  "sourcePath": "F:\\Project\\Blockchain\\Token\\contracts\\sago.sol",
  "compiler": {
    "name": "solc",
    "version": "0.8.19+commit.7dd6d404.Emscripten.clang"
  },
  "schemaVersion": "3.4.13",
  "updatedAt": "2023-05-30T11:41:26.488Z",
  "networkType": "ethereum",
  "devdoc": {
    "events": {
      "Approval(address,address,uint256)": {
        "details": "Emitted when the allowance of a `spender` for an `owner` is set by a call to {approve}. `value` is the new allowance."
      },
      "RoleAdminChanged(bytes32,bytes32,bytes32)": {
        "details": "Emitted when `newAdminRole` is set as ``role``'s admin role, replacing `previousAdminRole` `DEFAULT_ADMIN_ROLE` is the starting admin for all roles, despite {RoleAdminChanged} not being emitted signaling this. _Available since v3.1._"
      },
      "RoleGranted(bytes32,address,address)": {
        "details": "Emitted when `account` is granted `role`. `sender` is the account that originated the contract call, an admin role bearer except when using {AccessControl-_setupRole}."
      },
      "RoleRevoked(bytes32,address,address)": {
        "details": "Emitted when `account` is revoked `role`. `sender` is the account that originated the contract call:   - if using `revokeRole`, it is the admin role bearer   - if using `renounceRole`, it is the role bearer (i.e. `account`)"
      },
      "Transfer(address,address,uint256)": {
        "details": "Emitted when `value` tokens are moved from one account (`from`) to another (`to`). Note that `value` may be zero."
      }
    },
    "kind": "dev",
    "methods": {
      "allowance(address,address)": {
        "details": "See {IERC20-allowance}."
      },
      "approve(address,uint256)": {
        "details": "See {IERC20-approve}. NOTE: If `amount` is the maximum `uint256`, the allowance is not updated on `transferFrom`. This is semantically equivalent to an infinite approval. Requirements: - `spender` cannot be the zero address."
      },
      "balanceOf(address)": {
        "details": "See {IERC20-balanceOf}."
      },
      "burn(uint256)": {
        "details": "Destroys `amount` tokens from the caller. See {ERC20-_burn}."
      },
      "burnFrom(address,uint256)": {
        "details": "Destroys `amount` tokens from `account`, deducting from the caller's allowance. See {ERC20-_burn} and {ERC20-allowance}. Requirements: - the caller must have allowance for ``accounts``'s tokens of at least `amount`."
      },
      "decimals()": {
        "details": "Returns the number of decimals used to get its user representation. For example, if `decimals` equals `2`, a balance of `505` tokens should be displayed to a user as `5.05` (`505 / 10 ** 2`). Tokens usually opt for a value of 18, imitating the relationship between Ether and Wei. This is the default value returned by this function, unless it's overridden. NOTE: This information is only used for _display_ purposes: it in no way affects any of the arithmetic of the contract, including {IERC20-balanceOf} and {IERC20-transfer}."
      },
      "decreaseAllowance(address,uint256)": {
        "details": "Atomically decreases the allowance granted to `spender` by the caller. This is an alternative to {approve} that can be used as a mitigation for problems described in {IERC20-approve}. Emits an {Approval} event indicating the updated allowance. Requirements: - `spender` cannot be the zero address. - `spender` must have allowance for the caller of at least `subtractedValue`."
      },
      "getRoleAdmin(bytes32)": {
        "details": "Returns the admin role that controls `role`. See {grantRole} and {revokeRole}. To change a role's admin, use {_setRoleAdmin}."
      },
      "grantRole(bytes32,address)": {
        "details": "Grants `role` to `account`. If `account` had not been already granted `role`, emits a {RoleGranted} event. Requirements: - the caller must have ``role``'s admin role. May emit a {RoleGranted} event."
      },
      "hasRole(bytes32,address)": {
        "details": "Returns `true` if `account` has been granted `role`."
      },
      "increaseAllowance(address,uint256)": {
        "details": "Atomically increases the allowance granted to `spender` by the caller. This is an alternative to {approve} that can be used as a mitigation for problems described in {IERC20-approve}. Emits an {Approval} event indicating the updated allowance. Requirements: - `spender` cannot be the zero address."
      },
      "name()": {
        "details": "Returns the name of the token."
      },
      "renounceRole(bytes32,address)": {
        "details": "Revokes `role` from the calling account. Roles are often managed via {grantRole} and {revokeRole}: this function's purpose is to provide a mechanism for accounts to lose their privileges if they are compromised (such as when a trusted device is misplaced). If the calling account had been revoked `role`, emits a {RoleRevoked} event. Requirements: - the caller must be `account`. May emit a {RoleRevoked} event."
      },
      "revokeRole(bytes32,address)": {
        "details": "Revokes `role` from `account`. If `account` had been granted `role`, emits a {RoleRevoked} event. Requirements: - the caller must have ``role``'s admin role. May emit a {RoleRevoked} event."
      },
      "supportsInterface(bytes4)": {
        "details": "See {IERC165-supportsInterface}."
      },
      "symbol()": {
        "details": "Returns the symbol of the token, usually a shorter version of the name."
      },
      "totalSupply()": {
        "details": "See {IERC20-totalSupply}."
      },
      "transfer(address,uint256)": {
        "details": "See {IERC20-transfer}. Requirements: - `to` cannot be the zero address. - the caller must have a balance of at least `amount`."
      },
      "transferFrom(address,address,uint256)": {
        "details": "See {IERC20-transferFrom}. Emits an {Approval} event indicating the updated allowance. This is not required by the EIP. See the note at the beginning of {ERC20}. NOTE: Does not update the allowance if the current allowance is the maximum `uint256`. Requirements: - `from` and `to` cannot be the zero address. - `from` must have a balance of at least `amount`. - the caller must have allowance for ``from``'s tokens of at least `amount`."
      }
    },
    "version": 1
  },
  "userdoc": {
    "kind": "user",
    "methods": {},
    "version": 1
  }
}